:0400000064EF00F0B9
:100008000482210E016E760EE82EFED7012EFCD753
:1000180000D081CF03F039EF00F0070E0F01586FC1
:10002800300E5713080E896E4CEF00F00A0E0F01C0
:10003800586F5751CF0B1009576F040E896E4CEF4C
:1000480000F00D0E0F01586FCF0E5717020E896E74
:100058004CEF00F00F0E0F01586F5751CF0B2009CE
:10006800576F010E896E4CEF00F00350100AD8B498
:100078002EEF00F0300AD8B425EF00F0600AD8B4AB
:100088001AEF00F0C00AD8B411EF00F04CEF00F0FE
:10009800020E026EE70E016E000EE82EFED7012E4C
:1000A800FCD7022EFAD700D0110E016E3A0EE82EB8
:1000B800FED7012EFCD700D0F290F28604921100F0
:0400C8002AEF08F023
:101000000000D3508F0B2009D36EF00E936E000EAC
:101010000F01396F000E926E000E386F880EF26E5F
:10102000F00E626E9C0E526F0F0E586F5751CF0B21
:101030002009576F9592FC0E4817BA50FC0B020915
:10104000BA6EBA845751F00B0C09576F26EF08F0AF
:1010500064EF00F004900492000EF86E000101EFBE
:0210600008F096
:020000040020DA
:08000000FFFFFFFFFFFFFFFF00
:020000040030CA
:0E000000FF251E3CFF3F85FF0FC00FE00F40A5
:00000001FF
