:04000000CDEF0AF046
:1010000000446573706C617A616D69656E746F2000
:10101000646520746578746F2061206C6120697A42
:101020007175696572646100446573706C617A61A1
:101030006D69656E746F20646520746578746F20C7
:1010400061206C61206465726563686100426C694F
:101050006E6B20656E63656E6469646F00437572C4
:10106000736F72206170616761646F0043757273A2
:101070006F7220656E20312C3400437572736F726D
:1010800020656E20322C3800426C696E6B206170D6
:10109000616761646F00456A656D706C6F2064659F
:1010A00000636164656E6100437572736F72000066
:1010B000E7EC09F0480EE7EC0AF06F0EE7EC0AF0F7
:1010C0006C0EE7EC0AF0610EE7EC0AF0210EE7EC9B
:1010D0000AF0330E0B6EBB0E0A6EE00EE82EFED742
:1010E0000A2EFCD70B2EFAD7EEEC0AF0060E0B6E8A
:1010F000130E0A6EAE0EE82EFED70A2EFCD70B2E6C
:10110000FAD7960E056E64EC0AF0000E056E020E1C
:10111000046E000E076E010E066E85EC0AF0A10E3D
:10112000056E64EC0AF0330E0B6EBB0E0A6EE00E19
:10113000E82EFED70A2EFCD70B2EFAD7EEEC0AF0DB
:10114000060E0B6E130E0A6EAE0EE82EFED70A2E9A
:10115000FCD70B2EFAD77A0E056E64EC0AF0000E5F
:10116000056E020E046E000E076E080E066E85EC0C
:101170000AF0330E0B6EBB0E0A6EE00EE82EFED7A1
:101180000A2EFCD70B2EFAD7EEEC0AF0060E0B6EE9
:10119000130E0A6EAE0EE82EFED70A2EFCD70B2ECB
:1011A000FAD76C0E056E64EC0AF0000E056E010EA7
:1011B000046E000E076E040E066E85EC0AF0330E08
:1011C0000B6EBB0E0A6EE00EE82EFED70A2EFCD781
:1011D0000B2EFAD7EEEC0AF0060E0B6E130E0A6E0B
:1011E000AE0EE82EFED70A2EFCD70B2EFAD7010E34
:1011F000056E64EC0AF0000E056E190E046E3CECF0
:101200000AF0EEEC0AF0060E0B6E130E0A6EAE0E2E
:10121000E82EFED70A2EFCD70B2EFAD7280E056E25
:1012200064EC0AF0000E056E190E046E14EC0AF060
:10123000EEEC0AF0060E0B6E130E0A6EAE0EE82EE2
:10124000FED70A2EFCD70B2EFAD7880E056E64EC5B
:101250000AF0000EB9EC0AF0330E0B6EBB0E0A6EEC
:10126000E00EE82EFED70A2EFCD70B2EFAD7EEECB6
:101270000AF04D0E056E64EC0AF0010EB9EC0AF0AE
:10128000330E0B6EBB0E0A6EE00EE82EFED70A2E52
:10129000FCD70B2EFAD7EEEC0AF0060E0B6E130EEF
:1012A0000A6EAE0EE82EFED70A2EFCD70B2EFAD70A
:1012B0005D0E056E64EC0AF0000EA5EC0AF0330E2C
:1012C0000B6EBB0E0A6EE00EE82EFED70A2EFCD780
:1012D0000B2EFAD7EEEC0AF0A80E056E64EC0AF0BD
:1012E000000E056E020E046E000E076E010E066EF5
:1012F00085EC0AF0530E056E64EC0AF0010EA5ECC5
:101300000AF0330E0B6EBB0E0A6EE00EE82EFED70F
:101310000A2EFCD70B2EFAD7EEEC0AF0060E0B6E57
:10132000130E0A6EAE0EE82EFED70A2EFCD70B2E39
:10133000FAD75AEF08F000EF00F0026E02C001F099
:10134000010E01168C500118FE0B01188C6E02C0A4
:1013500001F0D8900132010E011601468C5001189F
:10136000FD0B01188C6E02C001F0D8900132D890AC
:101370000132010E0116014601468C500118FB0B8B
:1013800001188C6E02C001F0D8900132D890013261
:10139000D8900132010E01160146014601468C50DB
:1013A0000118F70B01188C6E8C8C4E0E016EEB0E33
:1013B000E82EFED7012EFCD700008C9C4E0E016E4D
:1013C000EB0EE82EFED7012EFCD700001200000E17
:1013D000956E000E0F013B6F8C988C9A340E046E44
:1013E000F20EE82EFED7042EFCD7030E9DEC09F07A
:1013F000030E9DEC09F0030E9DEC09F0020E9DEC2E
:1014000009F0160EDDEC0AF0080EDDEC0AF0010E14
:10141000DDEC0AF0060EDDEC0AF0020EDDEC0AF05F
:101420000F0EDDEC0AF012008C988C9A000E096EFB
:10143000000E086E2CEF0AF01C0EDDEC0AF0030E15
:10144000076E8A0E066E560EE82EFED7062EFCD7C5
:10145000072EFAD7084A092A0450085C0950800A66
:10146000066E0550800A0658D8A039EF0AF03BEF07
:101470000AF01CEF0AF012008C988C9A000E096E8C
:10148000000E086E54EF0AF0180EDDEC0AF0030EA1
:10149000076E8A0E066E560EE82EFED7062EFCD775
:1014A000072EFAD7084A092A0450085C0950800A16
:1014B000066E0550800A0658D8A061EF0AF063EF67
:1014C0000AF044EF0AF01200000E086E000E076EDC
:1014D00075EF0AF005500724066E06C0F6FF0800F7
:1014E000F550E7EC0AF0074A082A05500724066E73
:1014F00006C0F6FF0800F5500009D8A482EF0AF0F4
:1015000084EF0AF06AEF0AF012008C988C9A0404B7
:101510000510D8A48EEF0AF090EF0AF096EF0AF0CB
:1015200006507F0FDDEC0AF0A4EF0AF0020E04185B
:101530000510D8A49EEF0AF0A0EF0AF0A4EF0AF07D
:101540000650BF0FDDEC0AF01200046E8C988C9AE6
:101550000450D8B4AEEF0AF0B0EF0AF0B5EF0AF0DD
:101560000F0EDDEC0AF0B8EF0AF00C0EDDEC0AF01D
:101570001200046E8C988C9A0450D8B4C2EF0AF012
:10158000C4EF0AF0C9EF0AF00F0EDDEC0AF0CCEF61
:101590000AF00E0EDDEC0AF01200E80EF66E150EE3
:1015A000F76E000EF86E0900F5CF0CF0000EF86E25
:1015B000100EF76E000158EF08F0036E03380F0BA2
:1015C0009DEC09F003500F0B9DEC09F01200046E26
:1015D0008C888C9A0450DDEC0AF012008C988C9A5E
:0915E000010EDDEC0AF01200C05E
:020000040020DA
:08000000FFFFFFFFFFFFFFFF00
:020000040030CA
:0E000000FF221E3CFF3F85FF0FC00FE00F40A8
:00000001FF
