:0400000017EF00F006
:100008000982000E626E81CF01F0026AF290F296C8
:1000180001C005F002C006F001EC08F0F286F00E0F
:0A002800626E0992110033EF08F038
:10100000000005C007F006C008F00850000AD8B478
:101010000CEF08F01FEF08F00750010AD8B41FEFDB
:1010200008F0030AD8B41FEF08F0010AD8B41FEF84
:1010300008F0070AD8B41FEF08F01FEF08F01200FD
:10104000000E956E9368000E0F01396FF00E626E00
:10105000F286F290F28E000E046E000E036E2FEFF9
:1010600008F017EF00F0046A036A026A016A099047
:0C1070000992000EF86E000120EF08F05D
:020000040020DA
:08000000FFFFFFFFFFFFFFFF00
:020000040030CA
:0E000000FF211E3CFFBF85FF0FC00FE00F4029
:00000001FF
