:0400000081EF00F09C
:100008002082F296030E1C6E080E1B6E770EE82EE9
:10001800FED71B2EFCD71C2EFAD7000081CF1DF06F
:100028005EEF00F0000E166E000E156E000E146ED8
:10003800000E136E000E126E000E116E000E106E82
:10004800010E0F6E71EF00F0000E166E000E156EA9
:10005800000E146E000E136E000E126E010E116E5D
:10006800000E106E000E0F6E71EF00F0000E166E8F
:10007800000E156E000E146E010E136E000E126E39
:10008800000E116E000E106E000E0F6E71EF00F074
:10009800000E166E010E156E000E146E000E136E15
:1000A800000E126E000E116E000E106E000E0F6E16
:1000B80071EF00F01D50100AD8B44CEF00F0300A70
:1000C800D8B43AEF00F0600AD8B428EF00F0C00ABC
:1000D800D8B416EF00F071EF00F0020E1C6E040E9B
:1000E8001B6EBA0EE82EFED71B2EFCD71C2EFAD795
:0E00F80000D0F290F2862092110079EF09F00C
:101000000000FB0E8B6E2DEF08F03F0E8C6E63EF31
:1010100008F0060E8C6E63EF08F05B0E8C6E63EFCB
:1010200008F04F0E8C6E63EF08F0660E8C6E63EF67
:1010300008F06D0E8C6E63EF08F07D0E8C6E63EF22
:1010400008F0070E8C6E63EF08F07F0E8C6E63EF76
:1010500008F06F0E8C6E63EF08F011C01EF012C026
:101060001FF01F50000AD8B438EF08F063EF08F003
:101070001E50000AD8B405EF08F0010AD8B409EFF1
:1010800008F0030AD8B40DEF08F0010AD8B411EF44
:1010900008F0070AD8B415EF08F0010AD8B419EF20
:1010A00008F0030AD8B41DEF08F0010AD8B421EF04
:1010B00008F00F0AD8B425EF08F0010AD8B429EFD8
:1010C00008F063EF08F05B0E1E6EE80EE82EFED708
:1010D0001E2EFCD71200FE0E8B6E97EF08F03F0E0F
:1010E0008C6ECDEF08F0060E8C6ECDEF08F05B0E27
:1010F0008C6ECDEF08F04F0E8C6ECDEF08F0660EC3
:101100008C6ECDEF08F06D0E8C6ECDEF08F07D0E7D
:101110008C6ECDEF08F0070E8C6ECDEF08F07F0ED1
:101120008C6ECDEF08F06F0E8C6ECDEF08F015C011
:101130001EF016C01FF01F50000AD8B4A2EF08F02E
:10114000CDEF08F01E50000AD8B46FEF08F0010A86
:10115000D8B473EF08F0030AD8B477EF08F0010AA7
:10116000D8B47BEF08F0070AD8B47FEF08F0010A83
:10117000D8B483EF08F0030AD8B487EF08F0010A67
:10118000D8B48BEF08F00F0AD8B48FEF08F0010A3B
:10119000D8B493EF08F0CDEF08F05B0E1E6EE80EAA
:1011A000E82EFED71E2EFCD71200F70E8B6EF5EF41
:1011B00008F03F0E8C6E1FEF09F0060E8C6E1FEFCD
:1011C00009F05B0E8C6E1FEF09F04F0E8C6E1FEF57
:1011D00009F0660E8C6E1FEF09F06D0E8C6E1FEF1E
:1011E00009F07D0E8C6E1FEF09F00FC01EF010C0CD
:1011F0001FF01F50000AD8B400EF09F01FEF09F0EC
:101200001E50000AD8B4D9EF08F0010AD8B4DDEFB7
:1012100008F0030AD8B4E1EF08F0010AD8B4E5EF0A
:1012200008F0070AD8B4E9EF08F0010AD8B4EDEFE6
:1012300008F0030AD8B4F1EF08F01FEF09F05B0ED5
:101240001E6EE80EE82EFED71E2EFCD71200FD0EF5
:101250008B6E47EF09F03F0E8C6E71EF09F0060EB2
:101260008C6E71EF09F05B0E8C6E71EF09F04F0E12
:101270008C6E71EF09F0660E8C6E71EF09F06D0ED9
:101280008C6E71EF09F07D0E8C6E71EF09F013C05A
:101290001EF014C01FF01F50000AD8B452EF09F01E
:1012A00071EF09F01E50000AD8B42BEF09F0010AC3
:1012B000D8B42FEF09F0030AD8B433EF09F0010ACC
:1012C000D8B437EF09F0070AD8B43BEF09F0010AA8
:1012D000D8B43FEF09F0030AD8B443EF09F071EF37
:1012E00009F05B0E1E6EE80EE82EFED71E2EFCD710
:1012F00012005E0EF66E130EF76E000EF86E00EE24
:1013000001F010EE0EF00900F5CFEEFFE550E150D0
:10131000FAE100EE0FF00C0EEE6AE806FDE1209017
:101320002092000EF86E000196EF09F0F00E946E18
:10133000000E956EF00E936E0F0E0F01396F880E32
:10134000F26EF00E626E6BEC08F027EC09F001EC27
:1013500008F0D5EC08F0A3EF09F081EF00F0FEFDF6
:0C136000FBF76F7F077D6D664F5B063F5B
:020000040020DA
:08000000FFFFFFFFFFFFFFFF00
:020000040030CA
:0E000000FF221E3CFF3F85FF0FC00FE00F40A8
:00000001FF
