:04000000A1EF00F07C
:100008002082F296030E1C6E080E1B6E770EE82EE9
:10001800FED71B2EFCD71C2EFAD700F081CF1DF07F
:1000280070EF00F0000E166E000E156E000E146EC6
:10003800000E136E000E126E000E116E000E106E82
:10004800010E0F6E91EF00F0000E166E000E156E89
:10005800000E146E000E136E000E126E010E116E5D
:10006800000E106E000E0F6E91EF00F0000E166E6F
:10007800000E156E000E146E010E136E000E126E39
:10008800000E116E000E106E000E0F6E91EF00F054
:10009800000E166E010E156E000E146E000E136E15
:1000A800000E126E000E116E000E106E000E0F6E16
:1000B80091EF00F0000E166E000E156E000E146E15
:1000C800000E136E000E126E000E116E000E106EF2
:1000D800000E0F6E91EF00F01D501B6E1C6A1C5035
:1000E800000AD8B47AEF00F091EF00F01B50000A34
:1000F800D8B45EEF00F0100AD8B44CEF00F0300A24
:10010800D8B43AEF00F0600AD8B428EF00F0C00A7B
:10011800D8B416EF00F091EF00F0020E1C6E040E3A
:100128001B6EBA0EE82EFED71B2EFCD71C2EFAD754
:1001380000D0F290F286209211001BEF02F0FB0E25
:100148008B6ECFEF00F03F0E8C6E05EF01F0060EC0
:100158008C6E05EF01F05B0E8C6E05EF01F04F0E13
:100168008C6E05EF01F0660E8C6E05EF01F06D0EDA
:100178008C6E05EF01F07D0E8C6E05EF01F0070E19
:100188008C6E05EF01F07F0E8C6E05EF01F06F0E9F
:100198008C6E05EF01F011C01EF012C01FF01F5049
:1001A800000AD8B4DAEF00F005EF01F01E50000A9B
:1001B800D8B4A7EF00F0010AD8B4ABEF00F0030AF7
:1001C800D8B4AFEF00F0010AD8B4B3EF00F0070AD3
:1001D800D8B4B7EF00F0010AD8B4BBEF00F0030AB7
:1001E800D8B4BFEF00F0010AD8B4C3EF00F00F0A8B
:1001F800D8B4C7EF00F0010AD8B4CBEF00F005EF90
:1002080001F05B0E1E6EE80EE82EFED71E2EFCD700
:100218001200FE0E8B6E39EF01F03F0E8C6E6FEF01
:1002280001F0060E8C6E6FEF01F05B0E8C6E6FEFB7
:1002380001F04F0E8C6E6FEF01F0660E8C6E6FEF53
:1002480001F06D0E8C6E6FEF01F07D0E8C6E6FEF0E
:1002580001F0070E8C6E6FEF01F07F0E8C6E6FEF62
:1002680001F06F0E8C6E6FEF01F015C01EF016C016
:100278001FF01F50000AD8B444EF01F06FEF01F0EF
:100288001E50000AD8B411EF01F0010AD8B415EFD6
:1002980001F0030AD8B419EF01F0010AD8B41DEF30
:1002A80001F0070AD8B421EF01F0010AD8B425EF0C
:1002B80001F0030AD8B429EF01F0010AD8B42DEFF0
:1002C80001F00F0AD8B431EF01F0010AD8B435EFC4
:1002D80001F06FEF01F05B0E1E6EE80EE82EFED700
:1002E8001E2EFCD71200F70E8B6E97EF01F03F0E13
:1002F8008C6EC1EF01F0060E8C6EC1EF01F05B0E43
:100308008C6EC1EF01F04F0E8C6EC1EF01F0660EDE
:100318008C6EC1EF01F06D0E8C6EC1EF01F07D0E99
:100328008C6EC1EF01F00FC01EF010C01FF01F50FF
:10033800000AD8B4A2EF01F0C1EF01F01E50000A84
:10034800D8B47BEF01F0010AD8B47FEF01F0030ABB
:10035800D8B483EF01F0010AD8B487EF01F0070A97
:10036800D8B48BEF01F0010AD8B48FEF01F0030A7B
:10037800D8B493EF01F0C1EF01F05B0E1E6EE80EEA
:10038800E82EFED71E2EFCD71200FD0E8B6EE9EF6D
:1003980001F03F0E8C6E13EF02F0060E8C6E13EF19
:1003A80002F05B0E8C6E13EF02F04F0E8C6E13EFA3
:1003B80002F0660E8C6E13EF02F06D0E8C6E13EF6A
:1003C80002F07D0E8C6E13EF02F013C01EF014C005
:1003D8001FF01F50000AD8B4F4EF01F013EF02F039
:1003E8001E50000AD8B4CDEF01F0010AD8B4D1EFFD
:1003F80001F0030AD8B4D5EF01F0010AD8B4D9EF57
:1004080001F0070AD8B4DDEF01F0010AD8B4E1EF32
:1004180001F0030AD8B4E5EF01F013EF02F05B0E28
:100428001E6EE80EE82EFED71E2EFCD71200A20E76
:10043800F66E040EF76E000EF86E00EE01F010EE88
:100448000EF00900F5CFEEFFE550E150FAE100EEBD
:100458000FF00C0EEE6AE806FDE120902092000EE7
:10046800F86E000138EF02F0F00E946E000E956EF3
:10047800F00E936E0F0E0F01396F880EF26EF00EAC
:10048800626E0DEC01F0C9EC01F0A3EC00F077EC22
:1004980001F045EF02F0A1EF00F0FEFDFBF76F7FE2
:0804A800077D6D664F5B063F06
:020000040020DA
:08000000FFFFFFFFFFFFFFFF00
:020000040030CA
:0E000000FF221E3CFF3F85FF0FC00FE00F40A8
:00000001FF
