:0400000086EF00F097
:100008000C82F298F29281380F0B056E54EF00F0D3
:10001800300EF3EC08F083EF00F0310EF3EC08F04B
:1000280083EF00F0320EF3EC08F083EF00F0330EAC
:10003800F3EC08F083EF00F0340EF3EC08F083EFF4
:1000480000F0350EF3EC08F083EF00F0360EF3EC19
:1000580008F083EF00F0370EF3EC08F083EF00F0C0
:10006800380EF3EC08F083EF00F0390EF3EC08F0EB
:1000780083EF00F0C00E0B18D8A445EF00F047EF4F
:1000880000F04BEF00F0800E0B6E4DEF00F0C00E4D
:100098000B6E8C980B50F3EC08F08C8883EF00F013
:1000A8000550000AD8B42FEF00F0010AD8B434EF95
:1000B80000F0030AD8B439EF00F0060AD8B420EFEC
:1000C80000F0010AD8B425EF00F0030AD8B42AEFEB
:1000D80000F00E0AD8B411EF00F0010AD8B416EFF8
:1000E80000F0030AD8B41BEF00F0070AD8B40CEFED
:1000F80000F0020AD8B43EEF00F083EF00F0F28877
:080108000C921100D9EF08F080
:101000000000086E08C006F0010E06168C50061887
:10101000FE0B06188C6E08C006F0D8900632010E42
:10102000061606468C500618FD0B06188C6E08C076
:1010300006F0D8900632D8900632010E0616064603
:1010400006468C500618FB0B06188C6E08C006F07E
:10105000D8900632D8900632D8900632010E061685
:101060000646064606468C500618F70B06188C6E88
:101070008C8C020E076E040E066EBA0EE82EFED79A
:10108000062EFCD7072EFAD700D08C9C020E076ED6
:10109000040E066EBA0EE82EFED7062EFCD7072EDB
:1010A000FAD700D01200036E03C001F0010E011642
:1010B0008C500118FE0B01188C6E03C001F0D89003
:1010C0000132010E011601468C500118FD0B01186A
:1010D0008C6E03C001F0D8900132D8900132010E1D
:1010E0000116014601468C500118FB0B01188C6E4D
:1010F00003C001F0D8900132D8900132D89001326B
:10110000010E01160146014601468C500118F70BED
:1011100001188C6E8C8C020E026E040E016EBA0EDB
:10112000E82EFED7012EFCD7022EFAD700D08C9CD9
:10113000020E026E040E016EBA0EE82EFED7012ECC
:10114000FCD7022EFAD700D012009368000E0F01D0
:10115000396F000E956E000E3B6FF288F292F28EA0
:101160008C988C9A340E0A6EF20EE82EFED70A2E58
:10117000FCD7030E01EC08F0030E01EC08F0030E9F
:1011800001EC08F0020E01EC08F0200EE9EC08F08A
:10119000080EE9EC08F0010EE9EC08F0060EE9ECA7
:1011A00008F0020EE9EC08F00F0EE9EC08F08C886C
:1011B0001200060EF66E120EF76E000EF86E0900A3
:1011C000F5CF0BF00C900C92000EF86E0001FDEFC5
:1011D00008F0096E09380F0B01EC08F009500F0BED
:1011E00001EC08F01200046E04380F0B53EC08F009
:1011F00004500F0B53EC08F01200A5EC08F0FFEFC1
:0712000008F086EF00F0C0CA
:020000040020DA
:08000000FFFFFFFFFFFFFFFF00
:020000040030CA
:0E000000FF221E3CFF3F85FF0FC00FE00F40A8
:00000001FF
