:04000000A8EF08F06D
:101000000000F00E926E000E0F01386F000E956E0C
:10101000000E3B6F000E036E000E026E020E8C6E11
:10102000C80E00D000D0E82EFCD7000E8C6E330E18
:10103000016E200EE82EFED7012EFCD7024A032AAD
:1010400003BE2CEF08F0035009E1960E025CD8A015
:101050002CEF08F02EEF08F00EEF08F0000E056EF2
:10106000000E046E020E8C6E040E016E700EE82EE1
:10107000FED7012EFCD700D0000E8C6E310E016E13
:10108000800EE82EFED7012EFCD7044A052A05BEA5
:1010900053EF08F0055009E1960E045CD8A053EF19
:1010A00008F055EF08F032EF08F0000E076E000E62
:1010B000066E020E8C6E060E016E110EE82EFED725
:1010C000012EFCD70000000E8C6E2F0E016EDF0E7D
:1010D000E82EFED7012EFCD70000064A072A07BEDD
:1010E0007BEF08F0075009E1960E065CD8A07BEF75
:1010F00008F07DEF08F059EF08F0000E096E000EC1
:10110000086E020E8C6E070E016EB20EE82EFED730
:10111000012EFCD700D0000E8C6E2E0E016E3E0EFE
:10112000E82EFED7012EFCD7084A092A09BEA2EFF5
:1011300008F0095009E1960E085CD8A0A2EF08F06B
:10114000A4EF08F081EF08F00AEF08F000EF00F0DC
:06115000000101EF08F0B0
:020000040020DA
:08000000FFFFFFFFFFFFFFFF00
:020000040030CA
:0E000000FF221E3CFF3F85FF0FC00FE00F40A8
:00000001FF
