:0400000056EF7FF048
:10FEAC00000EF86E0001CAEF7FF0000E8A6E060E8F
:10FEBC00026E130E016EAE0EE82EFED7012EFCD78D
:10FECC00022EFAD78A68060E026E130E016EAE0E63
:10FEDC00E82EFED7012EFCD7022EFAD71200F00E18
:10FEEC008A6E060E026E130E016EAE0EE82EFED753
:10FEFC00012EFCD7022EFAD70F0E8A6E060E026E5A
:10FF0C00130E016EAE0EE82EFED7012EFCD7022E7C
:10FF1C00FAD71200800E036EA3EF7FF003C08AFFA6
:10FF2C00040E026E0C0E016E340EE82EFED7012E5E
:10FF3C00FCD7022EFAD7D89003320350D8A4A9EFDD
:10FF4C007FF0ABEF7FF094EF7FF01200010E036EA9
:10FF5C00C1EF7FF003C08AFF040E026E0C0E016E1F
:10FF6C00340EE82EFED7012EFCD7022EFAD7020E45
:10FF7C000302F350036E0350D8A4C7EF7FF0C9EF10
:10FF8C007FF0B0EF7FF01200030E926E000E936EB6
:10FF9C00000E0F01386FE1EF7FF05BEC7FF0E1EFCB
:10FFAC007FF090EC7FF0E1EF7FF0ACEC7FF0E1EFD5
:10FFBC007FF075EC7FF08050046E056A0550000AE6
:10FFCC00D8B4EBEF7FF0E1EF7FF00450000AD8B427
:10FFDC00D3EF7FF0010AD8B4D7EF7FF0030AD8B47F
:10FFEC00DBEF7FF0010AD8B4DFEF7FF0E1EF7FF0B9
:04FFFC0000EF00F022
:020000040020DA
:08000000FFFFFFFFFFFFFFFF00
:020000040030CA
:0E000000FF221E3CFF3F85FF0FC00FE00F40A8
:00000001FF
